:020000040800F2
:100000000000022099100008830E0008850E0008E9
:10001000870E0008890E00088B0E00080000000003
:100020000000000000000000000000008D0E00082D
:100030008F0E000800000000910E0008930E0008CB
:10004000E9100008E9100008E9100008E9100008AC
:10005000E9100008E9100008E9100008E91000089C
:10006000E9100008E9100008E9100008E91000088C
:10007000E9100008E9100008E9100008E91000087C
:10008000E9100008E9100008E9100008A50E0008B2
:10009000AB0E0008E9100008E9100008E91000089C
:1000A000E9100008E9100008E9100008E91000084C
:1000B000E9100008E9100008E9100008E91000083C
:1000C000E9100008E9100008E9100008E91000082C
:1000D000E9100008E9100008E9100008E91000081C
:1000E000E9100008E9100008AF0E0008E910000848
:1000F000E9100008E9100008E9100008E9100008FC
:10010000E9100008E9100008E9100008E9100008EB
:10011000E9100008E9100008E9100008990E00082D
:10012000E9100008E9100008E9100008E9100008CB
:10013000E9100008E9100008E9100008E9100008BB
:10014000E9100008E9100008E9100008E9100008AB
:10015000E9100008E9100008E9100008E91000089B
:10016000E9100008E9100008E9100008E91000088B
:10017000E9100008E9100008E9100008E91000087B
:10018000E9100008E9100008E9100008E91000086B
:10019000E910000800000000E9100008E91000085C
:1001A000E9100008E9100008E9100008E91000084B
:1001B000E9100008E9100008E9100008E91000083B
:1001C000E9100008E9100008E9100008E91000082B
:0801D000E9100008E910000825
:1001E00010B5054C237833B9044B13B10448AFF371
:1001F00000800123237010BDB0000020000000002B
:10020000F47B000808B5034B1BB103490348AFF367
:10021000008008BD00000000B4000020F47B00084E
:1002200081F0004102E000BF83F0004330B54FEAA7
:1002300041044FEA430594EA050F08BF90EA020F14
:100240001FBF54EA000C55EA020C7FEA645C7FEAA7
:10025000655C00F0E2804FEA5454D4EB5555B8BFCA
:100260006D420CDD2C4480EA020281EA030382EA3B
:10027000000083EA010180EA020281EA0303362DCD
:1002800088BF30BD11F0004F4FEA01314FF4801CA0
:100290004CEA113102D0404261EB410113F0004FB2
:1002A0004FEA03334CEA133302D0524263EB430369
:1002B00094EA050F00F0A780A4F10104D5F1200E07
:1002C0000DDB02FA0EFC22FA05F2801841F1000162
:1002D00003FA0EF2801843FA05F359410EE0A5F136
:1002E00020050EF1200E012A03FA0EFC28BF4CF067
:1002F000020C43FA05F3C01851EBE37101F000451D
:1003000007D54FF0000EDCF1000C7EEB00006EEB29
:100310000101B1F5801F1BD3B1F5001F0CD34908B3
:100320005FEA30004FEA3C0C04F101044FEA44520A
:1003300012F5800F80F09A80BCF1004F08BF5FEA91
:10034000500C50F1000041EB045141EA050130BD71
:100350005FEA4C0C404141EB0101013C28BFB1F583
:10036000801FE9D291F0000F04BF01460020B1FACE
:1003700081F308BF2033A3F10B03B3F120020CDAA1
:100380000C3208DD02F1140CC2F10C0201FA0CF07F
:1003900021FA02F10CE002F11402D8BFC2F1200CE4
:1003A00001FA02F120FA0CFCDCBF41EA0C0190409A
:1003B000E41AA2BF01EB0451294330BD6FEA0404E3
:1003C0001F3C1CDA0C340EDC04F11404C4F12002CE
:1003D00020FA04F001FA02F340EA030021FA04F3E0
:1003E00045EA030130BDC4F10C04C4F1200220FA37
:1003F00002F001FA04F340EA0300294630BD21FA75
:1004000004F0294630BD94F0000F83F4801306BF3A
:1004100081F480110134013D4EE77FEA645C18BF2E
:100420007FEA655C29D094EA050F08BF90EA020FC5
:1004300005D054EA000C04BF1946104630BD91EABD
:10044000030F1EBF0021002030BD5FEA545C05D1C0
:100450004000494128BF41F0004130BD14F58004FF
:100460003CBF01F5801130BD01F0004545F0FE4173
:1004700041F470014FF0000030BD7FEA645C1ABFA8
:10048000194610467FEA655C1CBF0B46024650EADF
:10049000013406BF52EA033591EA030F41F400210B
:1004A00030BD00BF90F0000F04BF0021704730B591
:1004B0004FF4806404F132044FF000054FF0000166
:1004C00050E700BF90F0000F04BF0021704730B527
:1004D0004FF4806404F1320410F0004548BF4042FC
:1004E0004FF000013EE700BF42004FEAE2014FEA51
:1004F00031014FEA02701FBF12F07F4393F07F4F2C
:1005000081F06051704732F07F4208BF704793F02E
:100510007F4F04BF41F40021704730B54FF4607441
:1005200001F0004521F000411CE700BF50EA010244
:1005300008BF704730B54FF000050AE050EA0102ED
:1005400008BF704730B511F0004502D5404261EB5D
:1005500041014FF4806404F132045FEA915C3FF49E
:10056000D8AE4FF003025FEADC0C18BF03325FEA3B
:10057000DC0C18BF033202EBDC02C2F1200300FAEC
:1005800003FC20FA02F001FA03FE40EA0E0021FA11
:1005900002F11444BDE600BF53B94AB9002908BFAF
:1005A00000281CBF4FF0FF314FF0FF3000F06AB958
:1005B000ADF1080C6DE904CE00F006F8DDF804E0BA
:1005C000DDE9022304B070472DE9F047089D0C4691
:1005D000002B4ED194468C458646B2FA82F262D9FF
:1005E0004AB1C2F12003914020FA03F30CFA02FC55
:1005F000194300FA02FE4FEA1C471FFA8CF6B1FBC2
:10060000F7F44FEA1E4307FB141143EA014304FBCE
:1006100006F199420AD91CEB030304F1FF3080F084
:100620001281994240F20F81023C6344591A1FFA29
:100630008EF3B1FBF7F007FB101143EA014300FB17
:1006400006F69E420AD91CEB030300F1FF3180F04D
:10065000FC809E4240F2F980634402389B1B40EAD2
:10066000044000211DB1D3400022C5E90032BDE89D
:10067000F0878B4205D90DB1C5E90001002108467C
:10068000F5E7B3FA83F1002946D1A34202D39042A1
:10069000C0F0F080861A64EB03030120002DE6D041
:1006A000C5E90063E3E7002A40F09080A1EB0C0469
:1006B0004FEA1C481FFA8CF70121B4FBF8F64FEA09
:1006C0001E4308FB164443EA044307FB06F0984226
:1006D00008D91CEB030306F1FF3402D2984200F262
:1006E000CD8026461C1A1FFA8EF3B4FBF8F008FBE7
:1006F000104443EA044300FB07F79F4208D91CEB70
:10070000030300F1FF3402D29F4200F2B080204682
:10071000DB1B40EA0640A5E7C1F120068B4022FA28
:1007200006F71F4320FA06FC04FA01F343EA0C0320
:10073000F44000FA01F8380C4FEA1349B4FBF0FE1C
:100740001FFA87FC00FB1E4449EA04440EFB0CF927
:10075000A14502FA01F20AD93C190EF1FF3A80F0E4
:100760008480A14540F28180AEF1020E3C44A4EBAE
:1007700009041FFA83F9B4FBF0F300FB134449EAC0
:10078000044403FB0CFCA44507D93C1903F1FF30DA
:1007900067D2A44565D9023B3C4443EA0E40A0FB26
:1007A0000293A4EB0C049C42CE469C4651D34ED0FF
:1007B00055B1B8EB0E0364EB0C0404FA06F6CB401B
:1007C0001E43CC40C5E90064002150E7C2F120037C
:1007D00020FA03F10CFA02FC24FA03F394400C43D0
:1007E0004FEA1C4800FA02FE1FFA8CF7B3FBF8F040
:1007F00008FB1031230C43EA014300FB07F1994247
:1008000008D91CEB030300F1FF362CD299422AD9F8
:10081000023863445B1AA4B2B3FBF8F108FB11334E
:1008200044EA034401FB07F3A34208D91CEB040488
:1008300001F1FF3613D2A34211D902396444E41AFC
:1008400041EA004139E70446F0E6084606E7C845B4
:10085000AED2B9EB020E63EB070C0138A8E73146C4
:10086000EDE7034699E73046D4E7D6467FE7634491
:1008700002384DE70646234608460FE7023E63442A
:1008800030E700BF704700BF034613F8012B002A72
:10089000FBD1181A0138704700000000000000006A
:1008A00001F0FF01102A2BDB10F0070F08D010F821
:1008B000013B013A8B422DD010F0070F42B3F6D125
:1008C000F0B441EA012141EA014122F007047FF03E
:1008D00000070023F0E80256083C85EA010586EA95
:1008E000010685FA47F5A3FA87F586FA47F6A5FAD1
:1008F00087F68EB9EED1F0BC01F0FF0102F00702DD
:1009000032B110F8013B013A83EA010313B1F8D187
:100910000020704701387047002D06BF3546033868
:10092000073815F0010F07D1013015F4807F02BFA1
:10093000013015F4C03F0130F0BC0138704700BFF2
:1009400010B594B038220021142406A806F0D2FC79
:100950002246002101A806F0CDFC002005F0E8FDAC
:1009600022234FF48070069340230122CDE909032E
:100970000223CDE90C23CDE90E3206A80822CDE9E9
:100980001043CDE9122304F0A3FE08B172B6FEE7CE
:100990000421CDE903000F22032305900DEB010094
:1009A000CDE9012305F0D6F808B172B6FEE714B020
:1009B00010BD00002DE9F0410024ADF5816D4FF42C
:1009C000FE7816460F4642462146054603A8029485
:1009D00006F090FC4246214683A8829465F07F058C
:1009E00006F088FC224610214FF090408DF8085008
:1009F00005F098FD731C4FF47A729BB2009202A925
:100A000082AA0B4804F0E8FC0122044610214FF0B2
:100A1000904005F087FD32460DF20921384606F078
:100A20009DFC201E18BF01200DF5816DBDE8F081F1
:100A30009C04002010B5ADF5007D00F07F008DF81E
:100A400000000DF10100144606F088FC0022102180
:100A50004FF0904005F066FD621C4FF47A736946D2
:100A600092B2084804F0F2FB0122044610214FF034
:100A7000904005F057FD201E18BF01200DF5007DA8
:100A800010BD00BF9C040020042070477047000088
:100A90000FB430B5C3B046AC002154F8045B0291EA
:100AA000FC2203A806F026FC2246294602A801944F
:100AB00006F016FC6423044682B202A9044806F03C
:100AC00017FA204643B0BDE8304004B0704700BF7D
:100AD000BC0300200268064B9A4207D1054AD2E9BE
:100AE0000031013341F10001C2E90031704700BF1C
:100AF00000140040D8000020F0B51A4E347887B0BA
:100B000005460F4634B11848FFF7C2FF00242046BF
:100B100007B0F0BD05F0C4FA02227F23CDE903231C
:100B200001A9012302A802940593019405F0C0FBDA
:100B3000083DA74208D805F0C5FA0C48FFF7A8FF02
:100B4000337801333370E2E704F10061F5E9022301
:100B500001F5FF21002005F0E9FA08B172B6FEE7C1
:100B60000834E6E7CC0000200C7C0008377C000845
:100B7000084B09491B6808685A6A10B54CF2503393
:100B80004C68A0FB030103FB0411801841F1000134
:100B900010BD00BF50040020D80000202DE9F04710
:100BA0008AB004F073FDFFF7CBFE1422002103A8E6
:100BB00006F0A0FB924BDA6C42F00102DA64DA6CC8
:100BC00002F001020192019ADA6C42F00202DA6448
:100BD000DB6C03F002030293002210214FF09040DF
:100BE000029B05F09FFC002286484FF4805105F0DF
:100BF00099FC0125002403A94FF090401027CDE96E
:100C00000375CDE905444FF4805605F0C1FB7D48DE
:100C100003A9CDE90365CDE9054405F0B9FB7A48A0
:100C20007A4B03604FF4027383800223C3718560A3
:100C300006F0BBFA08B172B6FEE7754CDFF80C821D
:100C400020614FF4E133C4E900834FF00C08C4E99C
:100C50000200C4E90580C4E90700C4E90900204690
:100C600006F0F6F9014608B172B6FEE7204606F036
:100C70005CFA014608B172B6FEE7204606F075FA46
:100C800008B172B6FEE7204606F034FA08B172B633
:100C9000FEE7DFF8BCA1DFF8BCE10590A023CDE9B9
:100CA0000300CAE900E3CAF808004CF25033CAF85E
:100CB00018005046CAF80C3005F08AFE08B172B62A
:100CC000FEE70390059003A9504605F0B1FE0346E8
:100CD00008B172B6FEE74F484F4983604FF4827205
:100CE000C0E900124FF4E062C0E903234FF4007C36
:100CF0001822C0E906C20722C0E90833C0E90B2365
:100D0000436183620823436304F032FA814608B1E9
:100D100072B6FEE7504605F0D1FC2A4639464FF040
:100D2000904005F0FFFB2A463648314605F0FAFBB5
:100D30002A4664230DF1030120468DF8038006F056
:100D4000D7F800F05DFA4946484602F09DF904F0F4
:100D5000B9FC324D324CFFF70BFFD5E90032C01A17
:100D600040F2D17361EB0201984271F1000109D3A5
:100D700084F8009000214FF0FF3002F0B3FC00F047
:100D800095FBE8E72378072BF4D140F20233ADF866
:100D90000C30ADF82290FFF7EBFE224B09901B8838
:100DA000ADF80E30204B84F800901B88ADF8103061
:100DB0001E4B1B88ADF812301D4B1B88ADF814304C
:100DC0001C4B1B88ADF816301B4B1B88ADF8183038
:100DD0001A4B1B88ADF81A30194B1B88ADF81C3024
:100DE000184B1B88ADF81E30174B00211B88ADF83F
:100DF000203003AA1C23084603F052F9BAE700BFCB
:100E00000010024000040048E0000020005C0040A8
:100E1000BC0300209C04002000300140D0000020D2
:100E2000CD0000200E0500200C0500200A05002042
:100E300008050020060500200405002016050020F6
:100E40001405002012050020100500200044004079
:100E50005004002000140040F8B505460E46FFF788
:100E600087FE04460F46FFF783FE621947EB060331
:100E700090429941F7D3F8BD0021FFF7EDBF72B65C
:100E8000FEE7FEE7FEE7FEE7FEE7FEE77047704796
:100E9000704704F00BBC0000014805F051BC00BFD6
:100EA00050040020002003F029BDFFF7FBBFFFF72F
:100EB000F9BF00000B4B1A6E42F001021A661A6E5F
:100EC00082B002F001020092009A9A6D42F08052C4
:100ED0009A659B6D03F080530193019B02B005F06E
:100EE0007FBB00BF0010024010B5044688B014223A
:100EF000002103A806F0FEF92268134B9A4220D184
:100F000003F5604301211A6E42F480521A661A6E8C
:100F100002F480520192019ADA6C42F00102DA6422
:100F2000DB6C03F001030293029BE0220223CDE974
:100F300003230523CDE906134FF0904003A905F0E4
:100F400027FA08B010BD00BF0030014007B50E4BB6
:100F500002689A4215D103F5FE3337209A6D42F0AC
:100F600020029A659B6D002203F020030193114635
:100F7000019B05F04FFB372003B05DF804EB05F053
:100F80007BBB03B05DF804FB0014004010B59CB0BF
:100F900004461422002102A806F0ACF954220021D4
:100FA00007A806F0A7F92268164B9A4228D1022317
:100FB00007A8079304F0E6FE08B1FFF760FF124BA5
:100FC0009A6D42F400329A659A6D02F400320092F2
:100FD000009ADA6C42F00102DA64DB6C03F0010380
:100FE0000193019B0C220223CDE902230023CDE9CA
:100FF000043302A907234FF09040069305F0C8F987
:101000001CB010BD004400400010024010B5044662
:1010100096B05422002101A806F06CF922680C4B0E
:101020009A4212D14FF4005301A8019304F0AAFE92
:1010300008B1FFF724FF074B9A6D42F400029A654E
:101040009B6D03F400030093009B16B010BD00BF1E
:10105000005C0040001002400B4A116810B50346C6
:1010600009B90A491160106809490A4C0344091B6F
:101070008B4206D906F046F90C2303604FF0FF308F
:1010800010BD1360FCE700BF000500200819002018
:1010900000000220004000000D48854603F086FF56
:1010A0000C480D490D4A002302E0D458C4500433C3
:1010B000C4188C42F9D30A4A0A4C002301E0136099
:1010C0000432A242FBD306F023F9FFF767FDFEE7E7
:1010D0000000022000000020AC00002044A4020810
:1010E000AC00002008190020FEE700001FB583783F
:1010F0000B2B1ED1D0F8030001A901F0B3FF0E4B5A
:10110000BDF804201A800D4BBDF806201A800C4B48
:10111000BDF808201A800B4BBDF80A201A800A4A35
:10112000137843F001031370FFF722FD074BC3E967
:10113000000105B05DF804FB160500201405002031
:101140001205002010050020CD000020D000002056
:1011500007B58378072B1AD1D0F80300694601F050
:101160008CFF0C4BBDF800201A800B4BBDF8022001
:101170001A800A4BBDF804201A80094A137843F0FC
:1011800002031370FFF7F4FC064BC3E9000103B040
:101190005DF804FB0E0500200C0500200A05002068
:1011A000CD000020D000002007B58378072B1AD18E
:1011B000D0F80300694601F060FF0C4BBDF8002039
:1011C0001A800B4BBDF802201A800A4BBDF8042090
:1011D0001A80094A137843F004031370FFF7C8FC20
:1011E000064BC3E9000103B05DF804FB08050020CD
:1011F0000605002004050020CD000020D0000020BE
:101200007FB58C4B8C4D8D498D4C8E4E01201870C6
:1012100000224FF40073CDE9003202958A4B8B4ACD
:1012200001F000FB2946207000F056FA284601F034
:10123000D6FA2946207000F04FFA2946304601F0D0
:1012400057FA2946207000F047FA3178892900F0D2
:10125000E6807F488922FFF71BFC7E4D76490C20F3
:10126000287001F090FA7449207000F035FA724944
:10127000284601F099FA7049207000F02DFA764B5B
:101280006D49764D0020187001F098FA6A49207077
:1012900000F022FA6849284601F043FA66492070B6
:1012A00000F01AFA2878C30640F1BD806C4D6249FF
:1012B00000F040FC6049284601F027FA5E492070A2
:1012C00000F00AFA94F9003023B9298811B1654871
:1012D000FFF7DEFB584B644A6449FE2001F0C2FA76
:1012E0005549207000F0F8F9534B5F4A5F49F820E8
:1012F00001F0B8FA5049207000F0EEF94E4B5A4A0E
:101300005B49252001F0AEFA4B49207000F0E4F96A
:10131000494B554A5749042001F0A4FA4649207028
:1013200000F0DAF9444B504A53490D2001F09AFA83
:101330004149207000F0D0F94FF400613E4A4F4817
:1013400001F022F93C49207000F0C6F93A4801F05A
:10135000A5FA3949207000F0BFF9374800F040FE87
:10136000474B1D884FF6FF739D4219D04548FFF744
:101370008FFBB5F5897F01D0FFF781FD4248FFF76C
:1013800087FB2D4B41494822012001F03DFA2A4BB1
:101390003F49C822032001F037FA3E48FFF778FBA7
:1013A0009FED3D0A244A0021252001F09BF92249A6
:1013B000207000F091F9252000F008FC374B014621
:1013C00000223748FFF764FB9FED330A1A4A0021D9
:1013D000042001F087F91849207000F07DF90420FD
:1013E00000F0F4FB2D4B014600222D48FFF750FB87
:1013F000114A9FED290A00210D2001F073F90E49D1
:10140000207000F069F90D2000F0E0FB234B01464D
:101410002348002204B0BDE87040FFF739BB2148E3
:10142000FFF736FB19E72048FFF732FBFFF727FDF0
:101430008CE700BF2D14002020110020B509000802
:10144000281400202C140020790E0008350A00080A
:10145000587C00081B0900201A09002019090020E7
:101460002A140020A47C0008180900206115000837
:10147000ED10000851110008A91100081C090020F6
:1014800000F80708EE7C0008227D000802F8070833
:101490004AF807083E7D00080000C8430000794074
:1014A000657D00087A7C0008CA7C0008F0B5254CF0
:1014B00025482246ADF5057D4FF4006101F064F842
:1014C000224B2146187000F007F9214B1A884FF67D
:1014D000FF739A4232D11F4B1B78032B2ED11E4B28
:1014E0001E78032E2AD11D4D00940023CDE902332E
:1014F0004FF4007202AB04A9012001F076F9029AC0
:1015000004A9284605F02AFF009403AB4FF40072AB
:1015100004A9304601F069F90298039F0230AE1E1B
:1015200084B204A93A4616FA80F005F017FFE119D3
:1015300025F8021C304689B2FFF7DEFA0DF5057D6D
:10154000F0BD00BF201100201C090020281400203D
:1015500000F807082F1400202E1400201A05002080
:10156000F7B5D0F803301E785A78B3F801709C783C
:101570000378FE2B0D4603D0F82B31D003B0F0BD1D
:101580003949731E132B6BD801A050F823F000BF0C
:10159000E5150008F1150008F515000861160008AA
:1015A000F915000805160008291600082D16000870
:1015B00031160008611600083516000843160008A9
:1015C000471600084B160008611600084F16000861
:1015D00055160008591600085D1600087D1500080C
:1015E0002249CEE7224803B0BDE8F040FFF750BAE9
:1015F0002048F8E72048F6E7204803B0BDE8F0406F
:10160000FFF746BA1E4801922346FFF741FA002D24
:10161000B4D0019A042A03D11A4B1C702C70ADE788
:101620000D2AFBD1184BF8E71848E6E71848E4E71D
:101630001848E2E71848234603B0BDE8F040FFF73A
:1016400027BA1648D9E71648CDE71648D5E7164811
:101650003A46C8E71548C6E71548C4E71548CCE739
:1016600015483246BFE700BF7C7D0008897D000831
:101670009E7D0008C37D0008ED7D0008167E0008F1
:101680002B7E00082F1400202E140020587E000806
:10169000777E0008977E0008BA7E0008E27E000888
:1016A000F57E0008217F00083D7F00086C7F000860
:1016B000917F0008BE7F0008CF7F00080930C0B2CC
:1016C00009289ABF024B53F820000248704700BF18
:1016D0005C9C0008F37F000808B548B1FFF7EEFFF7
:1016E00001460448FFF7D4F9BDE80840FFF7C7BB3F
:1016F00008BD00BF26970008E22800F27C81DFE8E1
:1017000010F0E4007A017A017A017A017A017A0113
:101710007A017A017A017A017A017A017A017A01F1
:101720007A017C01E300E600E800EA00EC00EE004C
:10173000F0007A01F200F400F600F800FA00FC0074
:10174000FE00000102010401060108010A010C016A
:101750000E01100112011401160118011A017A017B
:101760001C011E017A017A017A017A017A017A015B
:101770007A017A017A017A017A017A017A017A0191
:101780007A01200122012401260128012A017A017F
:101790007A017A017A017A017A017A017A017A0171
:1017A0007A012C012E013001320134013601380159
:1017B0007A017A017A017A017A017A017A017A0151
:1017C0007A013A013C013E017A01400142014401A3
:1017D0007A017A017A017A017A017A017A017A0131
:1017E00046017A017A0148014A017A014C014E0111
:1017F000500152015401560158015A015C015E0129
:101800007A017A0160017A017A017A017A017A011A
:101810007A017A017A017A017A017A017A017A01F0
:101820007A01620164017A017A017A017A017A010E
:101830007A017A017A017A017A017A017A017A01D0
:101840007A0166017A017A017A017A017A017A01D4
:101850007A017A017A017A017A017A017A017A01B0
:101860007A0168016A017A017A017A017A017A01C2
:101870007A017A017A017A017A017A017A017A0190
:101880007A016C016E0170017A017A017A017A01A4
:101890007A017A017A017A017A017A017A017A0170
:1018A0007A01720174017A017A017A017A017A016E
:1018B0007A017A017A017A017A017A017A017A0150
:1018C0007A017A01760178014D4B184670474D4BED
:1018D000FBE74D4BF9E74D4BF7E74D4BF5E74D4B2C
:1018E000F3E74D4BF1E74D4BEFE74D4BEDE74D4B3C
:1018F000EBE74D4BE9E74D4BE7E74D4BE5E74D4B4C
:10190000E3E74D4BE1E74D4BDFE74D4BDDE74D4B5B
:10191000DBE74D4BD9E74D4BD7E74D4BD5E74D4B6B
:10192000D3E74D4BD1E74D4BCFE74D4BCDE74D4B7B
:10193000CBE74D4BC9E74D4BC7E74D4BC5E74D4B8B
:10194000C3E74D4BC1E74D4BBFE74D4BBDE74D4B9B
:10195000BBE74D4BB9E74D4BB7E74D4BB5E74D4BAB
:10196000B3E74D4BB1E74D4BAFE74D4BADE74D4BBB
:10197000ABE74D4BA9E74D4BA7E74D4BA5E74D4BCB
:10198000A3E74D4BA1E74D4B9FE74D4B9DE74D4BDB
:101990009BE74D4B99E74D4B97E74D4B95E74D4BEB
:1019A00093E74D4B91E74D4B8FE74D4B8DE74D4BFB
:1019B0008BE74D4B89E74D4B87E74D4B85E74D4B0B
:1019C00083E74D4B81E74D4B7FE74D4B7DE74D4B1B
:1019D0007BE74D4B79E74D4B77E74D4B75E74D4B2B
:1019E00073E74D4B71E74D4B6FE74D4B6DE74D4B3B
:1019F0006BE74D4B69E74D4B67E74D4B65E700BF24
:101A00005C800008A6800008F38000083C81000884
:101A10009B810008E98100083D8200088A82000855
:101A2000C7820008EB820008238300086183000856
:101A30009A830008D98300081E84000842840008A5
:101A40007A840008B5840008E08400080B8500084B
:101A50002B850008608500087E850008A3850008A6
:101A6000DB850008068600082D86000853860008DE
:101A70007586000896860008B0860008CC860008A7
:101A8000E686000800870008298700088987000883
:101A9000AE870008D7870008038800082E88000852
:101AA000568800087F880008B5880008EC88000880
:101AB000148900084389000872890008A189000878
:101AC000BC890008D7890008088A00082D8A000808
:101AD000708A0008B48A0008F68A0008218B000882
:101AE0003A8B0008658B0008918B0008BB8B0008BF
:101AF000E98B00080E8C0008388C00085C8C00080C
:101B0000898C0008AF8C0008D58C0008FE8C00087A
:101B1000338D0008648D0008988D0008D38D00086F
:101B2000048E0008318E0008708E0008AB8E00080D
:101B30001680000873B50C461F48FEF7A9FF1F4921
:101B40001F48224600F012FE214606460DF107000E
:101B500000F0EBFE05469DF8070028B1FFF7CCFD2D
:101B600001461848FEF794FF30462146FFF7B4FDC2
:101B700021462846FFF7B0FD1348FEF789FF2046AF
:101B800000F0FBFD214606460DF1070000F0CDFEFA
:101B900005469DF8070028B1FFF7AEFD014609484C
:101BA000FEF776FF21463046FFF796FD2146284690
:101BB000FFF792FD02B070BDCD8E000868050200EF
:101BC000849C000826970008EA8E0008431E9E2B7E
:101BD00000F24B81DFE813F09F0049015101A100A1
:101BE000A300A500A700F5004901A9004901AB0029
:101BF000AD00AF00B100B300F7004901B5004901E5
:101C0000B700B900BB00BD00BF0049014901C100D8
:101C1000C3004901C500C7004901C900CB00490103
:101C2000CD00CF004901D100D3004901D500D70034
:101C30004901490149010F0149010B014901010114
:101C40000301490109014901110149011301490138
:101C5000150149011F0149014901490125014901B6
:101C60002701290149014901490149012B01490184
:101C7000330149014901490149014901490149012A
:101C8000490149014901490149014901D900DB00E4
:101C9000DD000D014901490149014901490149019D
:101CA00049014901490149014901490149014901E4
:101CB000490149014901EF004901F3003D01490192
:101CC0004901490149013F014101430145014701E2
:101CD00049014901F100DF00E100E300E500E70010
:101CE000E900EB00ED0005011B01170107011D01D3
:101CF00019012D012F0121012301F900FD00FB0035
:101D0000FF004901490149013B0135014901390100
:101D10004901370131015A4870475A4870475A48BB
:101D200070475A4870475A4870475A4870475A484F
:101D300070475A4870475A4870475A4870475A483F
:101D400070475A4870475A4870475A4870475A482F
:101D500070475A4870475A4870475A4870475A481F
:101D600070475A4870475A4870475A4870475A480F
:101D700070475A4870475A4870475A4870475A48FF
:101D800070475A4870475A4870475A4870475A48EF
:101D900070475A4870475A4870475A4870475A48DF
:101DA00070475A4870475A4870475A4870475A48CF
:101DB00070475A4870475A4870475A4870475A48BF
:101DC00070475A4870475A4870475A4870475A48AF
:101DD00070475A4870475A4870475A4870475A489F
:101DE00070475A4870475A4870475A4870475A488F
:101DF00070475A4870475A4870475A4870475A487F
:101E000070475A4870475A4870475A4870475A486E
:101E100070475A4870475A4870475A4870475A485E
:101E200070475A4870475A4870475A4870475A484E
:101E300070475A4870475A4870475A4870475A483E
:101E400070475A4870475A4870475A4870475A482E
:101E500070475A4870475A4870475A4870475A481E
:101E600070475A4870475A4870476030C3B2594A61
:101E700059481F2B98BF104670475848704700BFFD
:101E8000FE8E0008338F00084B8F0008608F00081B
:101E9000808F0008A38F0008B98F0008D08F00083A
:101EA000E48F0008F58F00080790000826900008CE
:101EB0003F90000859900008709000088490000836
:101EC00099900008BB900008CA900008E1900008B3
:101ED000F59000081191000821910008399100083F
:101EE0004E9100086B91000888910008AD910008A0
:101EF000B9910008CD910008EA910008039200080A
:101F00001F9200082B920008359200083E920008AC
:101F100042920008569200086892000879920008E0
:101F2000859200088A92000893920008A492000803
:101F3000AD920008B5920008BB920008C992000853
:101F4000D3920008EF92000806930008E59200087B
:101F5000FC9200085E930008A0930008B893000864
:101F60001B93000829930008369300084593000846
:101F7000549300087193000896930008AE930008EC
:101F8000CE930008E3930008FB930008FF9300083A
:101F90001294000825940008409400085294000808
:101FA0006794000884940008A0940008AE94000888
:101FB000D1940008EE9400080E95000821950008C1
:101FC0002D9500084A9500086A9500088B95000831
:101FD000A6950008C2950008D4950008188F00083F
:101FE0002DE9F0478EB00023044601460DF11100A3
:101FF000ADF81630ADF81830ADF81A308DF8113054
:102000008DF812308DF813308DF8143000F070FB1D
:1020100020B18B48FEF73CFDFEF731FF21460DF164
:10202000160000F072FB20B18648FEF731FDFEF786
:1020300026FF214606A800F06EFB20B18248FEF77D
:1020400027FDFEF71CFF21460DF11A0000F056FB9C
:1020500020B17E48FEF71CFDFEF711FF21460DF171
:10206000120000F064FB20B17948FEF711FDFEF785
:1020700006FF21460DF1130000F05FFB20B175480B
:10208000FEF706FDFEF7FBFE9DF811107248FEF705
:10209000FFFCBDF816107148FEF7FAFCBDF81810E9
:1020A0006F48FEF7F5FCBDF81A106E48FEF7F0FC1D
:1020B0009DF812306C496D4813F0010F6C4B18BF3E
:1020C0001946FEF7E5FC9DF812306A496A4813F09C
:1020D000020F6A4B18BF1946FEF7DAFC9DF8131081
:1020E0006748FEF7D5FC214605A800F01AFB20B191
:1020F0006448FEF7CDFCFEF7C2FE9DF8141062485E
:10210000FEF7C6FC9DF81430DB0702D55F48FEF7EA
:10211000BFFC9DF814309F0702D55D48FEF7B8FC60
:102120009DF814305E0702D55A48FEF7B1FC9DF8C1
:1021300014301D0702D55848FEF7AAFC9DF814304C
:10214000D80602D55548FEF7A3FC9DF81430990631
:1021500002D55348FEF79CFC9DF814305A0602D570
:102160005048FEF795FC9DF91430002B02DA4E48DA
:10217000FEF78EFC21460DF1150000F0D6FB10B1E4
:102180004948FEF785FC21460DF1150000F0CDFB16
:102190009DF8150028B1FFF7AFFA01464348FEF756
:1021A00077FC9DF813309B0745D5204600F076FB61
:1021B000204600F0C8FA3E483E4FDFF80481DFF8C1
:1021C0000491FEF765FC3C48FEF762FC3B48FEF7D5
:1021D0005FFC0025EEB22146304600F0B1FB38B37B
:1021E0009F2D07D83046FFF7F1FC294602464846A6
:1021F000FEF74EFC224607A9304600F08FFB20B1C7
:102200004046FEF745FCFEF73AFE09989DF81EA0F1
:102210009DF81D60FEF768F9CDE902010D98FEF703
:1022200063F95246CDE9000131463846FEF730FCED
:102230000135C82DCED101200EB0BDE8F08700BF1A
:10224000019600081D9600083D9600085B96000860
:102250007896000895960008B5960008CD96000877
:10226000E5960008FD960008F2950008159700080D
:10227000E9950008FD9500082B970008F9950008DE
:10228000419700085B97000878970008919700082D
:10229000A4970008BA970008D7970008EE9700089F
:1022A0000798000826980008469800082697000816
:1022B0005A9800084D99000871980008CA980008BB
:1022C0003099000823990008004870478CA3020841
:1022D0000028024818BF0020704700BF64A202080F
:1022E0000048704742A202082DE9F04188B0B8B119
:1022F000032824D0062867D8344B53F820402046C2
:10230000FEF7C2FA20280346314A28BF2023204680
:10231000E11881420AD010F8014B22F8024FF8E789
:102320002A4B1B681A882A4B5A80012301332848FC
:102330005B0043F44073038008B0BDE8F081254B97
:10234000002B38D010216846AFF300800346102BD5
:102350001F4E28BF10236C464FF0000E734531D03E
:102360001D4A04AF02F110083D4610685168BC4692
:10237000ACE80300083242456746F6D114F8017B09
:1023800007F00F0220326A4412F8102CB280124A71
:1023900010685168AC46ACE8030008324245654617
:1023A000F6D108AA02EB17170EF1010E17F8102C40
:1023B00072800436D2E7094B009303F1883301930E
:1023C0000823C4E75B00B1E70020B5E70000002068
:1023D0003014002000000000ECA102080123456732
:1023E0002DE9F04F00F15A0987B002EBC9034FF015
:1023F000000A019302F11C0300900C461546D046DA
:1024000056461F46D4E90032934280F09E804EB17A
:10241000934200F2AD80D21A6260002A00F09880E8
:1024200000229EE02069C15C71B1F32947D9A1F176
:10243000F40CBCF10B0F42D8DFE80CF02509192B86
:1024400041414109192B4106591C2160DAE7991CC9
:102450008A421CD30344009A587805EBC20CDCE98D
:10246000B4321B1842F10002CCE9B432EDE7D91CBA
:102470008A420CD3009A034405EBC20C58789A7830
:1024800040EA0220EBE703F117018A42DDD2012680
:10249000B8E7991D8A42FAD3034405EBC90CDA78F0
:1024A0009878120442EA00225878024318795B793E
:1024B00042EA006245F83920CCF80430C5E7E5B1BE
:1024C0004FF0000C0CEBCC0E17F80EB08B4536D14C
:1024D000AE44DEF81D80DEF821A0F4290DD905EB0D
:1024E000010E9EF8CCC1BCF1000F06D1DFF888C008
:1024F0008C441CF8F5CC8EF8CCC105EB010B9BF895
:10250000CCC10CEB030E7245C1D3B8F1000F10D053
:1025100001331844009B8DF80D30019BCDF80F005E
:102520008DF80C10CDF813308DF80EC0514603A86D
:10253000C0479BF8CC2123681344236062E70CF169
:10254000010CBCF1300FBDD1C7E7002A7FF460AFAA
:10255000002007B0BDE8F08F21692068CD18285C05
:10256000C8546168D3B2994202F10102F4D8EFE78E
:102570006FF00100EDE700BF9EA302080BB100F071
:1025800005BA4FF0FF307047F0B58BB00026074614
:102590000C4603961546002A00F09780002800F0AC
:1025A0009480002900F094800A46314604F0A2FE8F
:1025B00029460DF10B00CDE90847CDE905660796E0
:1025C00000F076FB044600285CD19DF80B300690A5
:1025D0000490FBB103F006025423D340079A03F0A2
:1025E0000103134311D006980899099E0095002312
:1025F0000593091A07AB04AA304400F0D6FB002863
:102600006CD1069B049A134406932A4605A9002020
:10261000FFF7E6FE079B002213B113460028D9D02E
:102620009DF80B30069213B922E0134624BB03F049
:1026300018022B4BD340079A03F00103134311D028
:102640000698099C0899009500230593091A07AB81
:10265000204403AA00F0B5FB044698B9069B039AF0
:10266000134406932A4605A90120FFF7B9FE044644
:10267000079B0022002BD8D19DF80B30069223B97E
:10268000079B43BB20460BB0F0BD002CFAD15B0684
:1026900001D4079B93B10698099C089900950023E3
:1026A0000593091A07AB204403AA00F01DFC044659
:1026B0000028E7D1069B039A134406932A4605A9EE
:1026C0000220FFF78DFE0446DAE74FF0FF34D9E72A
:1026D0006FF00504D6E7002CDBD0D3E70446D1E742
:1026E000000101010AB100F00BBC4FF0FF30704750
:1026F00009B100F092BA4FF0FF30704711B108B144
:1027000000F091BA4FF0FF30704709B100F09CBA69
:102710004FF0FF30704709B100F0A7BA4FF0FF301B
:10272000704709B100F0B2BA4FF0FF30704709B1FD
:1027300000F0B2BA4FF0FF30704709B100F0B2BA02
:102740004FF0FF3070471FB50023039358B100903E
:1027500000F53A7103AB202240F21F1000F061FB3C
:1027600005B05DF804FB4FF0FF30F9E712B108B196
:1027700000F0F1BA4FF0FF30704708B100F006BB2F
:102780004FF0FF30704707B50B468DF8070041B199
:1027900001220DF10701072000F05AF903B05DF89E
:1027A00004FB4FF0FF30F9E70B4621B1014601224F
:1027B000072000F0EBB84FF0FF30704707B50B462D
:1027C0008DF8070041B101220DF10701062000F04C
:1027D0003FF903B05DF804FB4FF0FF30F9E708B1B3
:1027E00000F08ABA4FF0FF30704770B4039E3EB1DC
:1027F00031B12BB1039640F4007070BC00F0A2BB65
:102800004FF0FF3070BC704710B433B129B15DF8A0
:10281000044B40F4007000F0CCBB4FF0FF305DF88B
:10282000044B70472DE9F0471F460A9BDDE90889F4
:1028300004460D4616468BB14FF4427200211846ED
:1028400004F058FDCDF82080CDE909903B46324692
:1028500029462046BDE8F04700F080B84FF0FF3031
:10286000BDE8F087F0B50546A3B199B1002403F1A6
:102870001C0704EBC406B85D30B933441D77C3F8B8
:102880001D10C3F82120F0BD0134302CF1D16FF0C0
:102890000900F8E74FF0FF30F5E7000070B5044697
:1028A00088B098B3FFF74FFF58BB012584F8CC518F
:1028B0002E46C5F3C402224405F0070392F8E8222D
:1028C00006FA03F31A42E8B20AD0224601A900F040
:1028D0009EFB30B99DF81830ABB104F5E672535544
:1028E0000020F42D02D001350028E2D0022384F824
:1028F000C13240F20363074AA4F8C232064BC4E96E
:10290000B12308B070BD6FF00700EFE74FF0FF3064
:10291000F7E700BF040012020306040112B109B177
:1029200000F075BB4FF0FF3070470B4629B120B166
:10293000014601222E20FFF721BE4FF0FF307047E5
:1029400051B101EBD001012391F8E81200F007002A
:10295000834001EA030070470846704730B5059C84
:10296000039D84B179B172B16BB115F0030FC4E965
:10297000001218BF25F00305A360049B2073236198
:10298000A561002030BD4FF0FF30FBE738B51C4695
:102990007BB11D686DB161B11B7B012B08BF40F09D
:1029A00080002369A8470028207518BF6FF0020037
:1029B00038BD4FF0FF30FBE72DE9F04F85B0DDE982
:1029C0000E690190884615461F46B9F1000F3CD0AC
:1029D00000293AD0002B38D0002E36D03268D9F8F2
:1029E00018B01ABB02224B4603A9FFF7CFFFBDF870
:1029F0000C20326004463268A2B19CB9954228BFCF
:102A000015463D60A2465D4512D83DB101984B4642
:102A10002A4608EB0A01FFF7B9FF044633683A6813
:102A20009B1A3360204605B0BDE8F08F0024E2E732
:102A300001984B465A4608EB0A01FFF7A7FF00280A
:102A4000E4D1A5EB0B05DA44DDE74FF0FF34E9E70D
:102A500038B51C467BB15D686DB161B11B7B012B44
:102A600008BF00F07F002369A8470028207518BF21
:102A70006FF0020038BD4FF0FF30FBE72DE9F04F5B
:102A8000C5B01646509A01919B46DDE94E31002AA9
:102A900000F0848016B1019A002A7FD013B1BBF1F7
:102AA000000F7BD0509A9269002A7AD006EB030A75
:102AB00009B30B4499071CBF23F003030433022816
:102AC0000BBFC3F38701D9B2C3F38723C3F3072333
:102AD000FC2A28BFFC228DF81330ADF810008DF8C9
:102AE00012100AF104039146554604242BB91846E6
:102AF00045B0BDE8F08F5346DCE72B194B4526D98E
:102B0000A9EB0407C84667B104F110020DEB0200FF
:102B1000BA19AA4229D8AAEB05013A46594404F049
:102B20001DFC3819404506D004ABC0F58072002169
:102B3000184404F0DFFB509B424604A90020FFF735
:102B400087FF0028D4D1ED1B2B460446CEE79A0719
:102B50001ABF23F0030808F104089846B8F1FC0FE7
:102B600028BF4FF0FC082F46CDE70293B542A6EBF5
:102B7000050303930DD9AAEB0501AA1B594404F0E0
:102B8000EDFB029B0199981B721B04AB3A4418445D
:102B9000C5E7019B711B3A461944C0E74FF0FF306F
:102BA000A6E76FF00100A3E708B529B18B681BB158
:102BB00009699847002008BD4FF0FF30FBE737B5A3
:102BC0000546002429464CF25030FFF7EDFF00285F
:102BD00017DB2B4601220DF107012520FFF7D6FE5A
:102BE00000280EDB9DF8072002F03003302B02D1C5
:102BF00012F0400005D00134A4B2642CE2D16FF091
:102C0000040003B030BD1FB502930023CDE90033AB
:102C1000FFF734FF05B05DF804FB0B4601220146C7
:102C20001C20FFF7B3BE13B50B46044648B1022281
:102C300001A91E20FFF7AAFEBDF80430238002B0D0
:102C400010BD4FF0FF30FAE713B50B46044648B10C
:102C5000022201A92020FFF799FEBDF8043023804D
:102C600002B010BD4FF0FF30FAE713B50B46044633
:102C700048B1022201A92220FFF788FEBDF80430E6
:102C8000238002B010BD4FF0FF30FAE70B4601225F
:102C900001462520FFF77ABE0B4601220146172088
:102CA000FFF774BE0B46012201462420FFF76EBEDB
:102CB0000B46012201462D20FFF768BE73B506467C
:102CC0004FF47A7531460DF10700FFF7F1FF044626
:102CD00068B99DF807309B0609D4314642F210705E
:102CE000FFF762FF30B9013DADB2002DEAD12046B9
:102CF00002B070BD0446FAE737B50023054601224D
:102D00008DF807300DF10601034614208DF80620DA
:102D1000FFF79EFEE8B90F24294642F21070FFF734
:102D200043FF58B92B4601220DF107012520FFF77B
:102D30002DFE18B99DF80730DB060AD4013CA4B279
:102D4000002CE9D19DF8073013F0100F08BF6FF089
:102D5000040003B030BD10B514468AB180B10288BA
:102D600046F22B639A420ED10A46234601460220C0
:102D7000FFF749FF30B92046BDE81040FFF71FBFFD
:102D80004FF0FF3010BD6FF00300FBE7002210B5DD
:102D90000346044611460320FFF735FF20B92046BD
:102DA000BDE81040FFF70BBF10BD13B5049CCDE983
:102DB000003413460A4601460120FFF7FDFD02B02C
:102DC00010BD13B5049CCDE9003413460A460146F4
:102DD0000220FFF7F1FD02B010BD2DE9F341DDF84F
:102DE00020801546042207460C461E460DEB0201C4
:102DF00043460320FFF7CAFD68B9BDF80620BDF8B9
:102E000004303B80326032B1AA4207D843462146A3
:102E10000320FFF7BBFD02B0BDE8F0816FF00500B5
:102E2000F9E72DE9FF470C9D1E46002380468946A1
:102E30009246ADF80E30002D53D0002951D0002E0F
:102E40004FD0336001222B460DF10D010620FFF714
:102E50009DFD0446A0BB9DF80D7007F07F038DF823
:102E60000D303B0622D400222B46114648F48050F8
:102E7000FFF7C9FE044618BB2846FFF71FFF0446AC
:102E8000F0B900953346524649460DF10E00FFF762
:102E9000A4FF0446A0B99DF80D30BB4214D1BDF883
:102EA0000E30434518BF6FF0040409E02B460122A1
:102EB0000DF10D010620FFF7CBFD04460028D2D00E
:102EC000204604B0BDE8F0872B4601220DF10D012C
:102ED00006208DF80D70FFF7BBFD0028DFD00446FB
:102EE000EEE74FF0FF34EBE713B5049CCDE9003477
:102EF00013460A4601460320FFF75EFD02B010BDEF
:102F00001FB58DED010A019C8DF80D101346220AA4
:102F10008DF80A20220C8DF80B200A0A8DF80E205D
:102F2000090C08228DF808008DF809408DF80F1063
:102F3000240E0DEB02010D208DF80C40FFF763FE0F
:102F400004B010BD2DE9F04F814695B088469246F9
:102F50009B4600261E9B0093442202AB03A94846D1
:102F6000FFF75FFF0446B8B9029B442B18D8BDF8A1
:102F70000E209DF80C709DF80D50A2B15245CBF873
:102F8000002013D82A4608EB060004A904F0E6F94D
:102F900035443B06AEB2DDD5204615B0BDE8F08F16
:102FA0006FF03304F8E76FF04704F5E76FF00504BE
:102FB000F2E72DE9F047002792B080468946154692
:102FC0009A463E46AE4203D3002012B0BDE8F087D9
:102FD000AC1B07F07F03402C9ABF43F08003E2B2A2
:102FE000402209EB060102A88DF804308DF8052077
:102FF000ADF8065004F0B2F95346442201A9404608
:10300000FFF701FE01370028DFD14036DAE710B5BF
:103010000C468AB019B3F52803D96FF001000AB045
:1030200010BD009202AB1C2203A900F54070FFF70F
:10303000F8FE0028F3D1029B1C2BEED104996160AD
:103040000599039BA16006999DF820202360E1600B
:10305000DDF82130079921612275A361DFE74FF088
:10306000FF30DCE703880B8043884B8083888B80AC
:10307000C388CB8003890B81704703880B8043880A
:103080004B8083888B80704713B50B4699B9012418
:1030900001A91846ADF8044000F002F940B94FF01C
:1030A000E023D3F8F03DDA0700D500BE02B010BD32
:1030B0000D4B1C70FAE7012801D80B7843B94FF08B
:1030C000E023D3F8F03DDB0700D500BE0020EDE79C
:1030D000054C012B235401D00120E7E700F0E0F874
:1030E0000028F9D1EBE700BF7214002003780246F4
:1030F00013F0010011D11378C3F380015B070FD4E3
:10310000137813F001000AD113785B0708D4137801
:1031100043F00403137001207047002070470846F5
:103120007047000030B5C478858804F00304022C91
:10313000C5F30A030CD0032C31D0012C14D1022981
:1031400040F2FF3208BF4FF480629A4216D204E088
:1031500002290BD1B3F5007F10D04FF0E023D3F854
:10316000F03DDA0700D500BE002030BD42B1B3F516
:10317000007F05D140230371002343710120F4E750
:10318000202B0AD815F4FF6FE7D0074A083B9BB203
:1031900022FA03F3DB07E0D5F0E7402BDCE7022956
:1031A00018BF4022CEE700BF0101000130B50A443C
:1031B000914200D330BD4C78052C06D18C7804F0B8
:1031C0007F0500EB4505E4092B550C782144EFE71A
:1031D000002070472DE9F041194E1A4F3278DFF880
:1031E000748005460024E3B29A420DD9D8F8002035
:1031F00012EB43130BD14FF0E023D3F8F03DDB0784
:1032000000D500BEBDE8F0819B1A07EB4313DB68D5
:103210002846984701343278E3B29A42E3D2342206
:103220000021094804F066F81022FF21074804F045
:1032300061F8BDE8F04106481022FF2104F05AB8B9
:1032400038150020ACA302084115002045150020C8
:10325000551500203C15002070B50C460546164655
:10326000486900F0BBFD6369324628460121BDE88C
:1032700070401847034A034610780BB101F078B943
:1032800001F094B92C00002070477047002070476F
:1032900000207047002070477047704770477047A4
:1032A0002DE9F047284F3B78FF2B04460D4644D1CB
:1032B00049B94FF0E023D3F8F03DDB0700D500BE5D
:1032C0000020BDE8F087342200212048DFF89880F4
:1032D00004F010F81E4B1F4800221A7000F05FFE29
:1032E0001D4B1E4A1A601E4B23B14046AFF30080AF
:1032F0001C4B186098F80020DFF87090DFF864A08D
:103300000026F3B29A421AD9DAF8002012EB4313DE
:10331000CFD05B68002BCCD09847013698F80020BE
:10332000F3B29342EDD9294620463C7001F08AFA67
:103330000028BED0204601F01BF90120C1E79B1AEE
:1033400009EB4313E5E700BF2C00002041150020E6
:103350004015002020000020741400201C000020D4
:10336000000000003C15002038150020ACA3020826
:103370002DE9F0434378023B85B005460C46042B0B
:1033800000F28A80DFE813F0790005009D00A500B7
:10339000C900644FDFF89C813A78DFF89C910026E1
:1033A000F3B2934280F09E80D9F8002012EB4313D1
:1033B00040F09B803A780136F3B29A42F0D25A4EEE
:1033C000337858072CD533786FF38203337000239A
:1033D000CDF80630CDF80A30ADF80E302B788DF8E8
:1033E000043005238DF80530504BD3F800801CB90C
:1033F000D8F800302046984701A908F1040000F0F1
:10340000ABFD07461CB9D8F8003001209847002FC3
:1034100073D14FF0E023D3F8F03DD90700D500BEBB
:10342000F378DA0726D50023CDF80630CDF80A3038
:10343000ADF80E302B788DF8043003238DF805306D
:103440006B680293394B1E6814B93368204698475D
:1034500001A9301D00F080FD054614B93368012034
:103460009847002D51D14FF0E023D3F8F03DDB0712
:1034700000D500BE05B0BDE8F0832B4B1A786FF382
:1034800000021A701A7800216FF341021A70597005
:103490001A7861F382021A70244B1F6814B93B68D2
:1034A000204698472946381D00F056FD064614B9B7
:1034B0003B6801209847002ED5D0697828782246AD
:1034C00028E0194B1A78D707D4D51A7842F00402AD
:1034D000E1E7154A1378DE07CCD513786FF3820342
:1034E0001370D9E79B1A08EB4313DB69002B3FF4F9
:1034F00061AF6968287898475CE79DF805109DF8EA
:1035000004002246FFF7C0FE8AE79DF805109DF8EB
:1035100004002246FFF7B8FEACE7054A13780133F2
:10352000DBB2DDE7381500204115002074140020BF
:1035300040150020ACA302083C15002038B58A785D
:103540000D4B12F078021D780C4608D04FF0E023A6
:10355000D3F8F03DDB0700D500BE002038BD074B97
:1035600020469978FFF7DEFD0028EFD02146284657
:10357000BDE8384001F004BC2C00002041150020BB
:103580002DE9F047DDE9086781460C4690469A46EA
:103590000025A84501DC01200FE06378052B04D14C
:1035A000E37803F00303534509D04FF0E023D3F849
:1035B000F03DDB0700D500BE0020BDE8F0872146C6
:1035C0004846FFF7BBFF0028EFD0A378DA0914BF05
:1035D0003B703370237801351C44DAE7CB0901F0E6
:1035E0007F020448243303EB420300211844FFF711
:1035F0007DBD00BF4115002070B5134C134801F08C
:103600007F0604EB460404EBD114203425790078BE
:10361000ED0708D54FF0E023D3F8F03DDB0700D5E8
:1036200000BE002070BD257945F00105257101F02F
:1036300033FC0028F6D1227960F30002227122794E
:1036400060F382022271E5E7411500202C00002082
:1036500010B50C4B18780C4601F03AFC0A4904F0FE
:103660007F0301EB430101EBD41191F8243043F0C7
:10367000020381F8243091F8243043F0010381F8EB
:10368000243010BD2C0000204115002010B50C4B3B
:1036900018780C4601F04EFC0A4904F07F0301EB58
:1036A000430101EBD41191F824306FF3410381F809
:1036B000243091F824306FF3000381F8243010BDDA
:1036C0002C00002041150020054B01F07F0203EB88
:1036D000420303EBD11191F82400C0F3400070477E
:1036E000411500202DE9F04F9B4B1B78FF2B89B033
:1036F0003FD0DFF87082994B1D682C46002054F8AB
:10370000043B9847204605A900F014FC2B680446AA
:10371000012098476CB39DF81530013B072B00F250
:10372000D982DFE813F008001300CE02B302BF0213
:103730001C007702C7029DF81400FFF74BFD00F054
:1037400045FB9DF8183088F80230D4E79DF8140046
:10375000FFF740FD00F03AFBFFF79FFDCBE7804A03
:1037600013784BB94FF0E023D3F8F03DDC0700D5D8
:1037700000BE09B0BDE8F08F1378013BDBB21370D7
:10378000137803F0FF00002BB5D1764C9DF8145050
:10379000237843F00103237094F8243060F300038E
:1037A00084F8243094F8243060F3820384F82430C1
:1037B00094F8253060F3000384F8253094F8253020
:1037C00060F3820384F8253000F008FB9DF8182090
:1037D00002F06003602B07D14FF0E023D3F8F03DF7
:1037E000DD072AD500BE28E0402B0BD15E4800F053
:1037F000F5FA06AA01212846FFF7EAFC00287FF423
:103800007AAF1AE002F01F02012A00F08481022A36
:1038100000F0B381002ADFD1202B20D19DF81C308D
:103820000F2B0AD8514A234412781B7993420FD2A6
:103830004F4A116811EB43110CD19DF8140000217F
:1038400001F046FB9DF81400802101F041FB52E796
:10385000F3D1484906AA2846FFF7FEFCCEE7002B25
:10386000BAD19DF81930092BB6D801A252F823F02D
:10387000F53A0008E33A0008D9370008CF3A0008C3
:10388000D937000899380008253A0008D9370008C8
:10389000B3380008BD38000806A800F0A5FA9DF866
:1038A0001A10284601F00EFB237843F00203237020
:1038B00021E763788DF81230012325E19DF81A6025
:1038C00063789E4243D063785BB10021284601F0C3
:1038D00003F8284601F0BEFAA7782846FFF77AFCDD
:1038E000A7706670002E00F09A80701EC0B2FEF7BE
:1038F000F7FC10B14378022B10D04FF0E023D3F83F
:10390000F03DDB0700D500BE4FF0E023D3F8F03DDB
:10391000DF0700D500BE002363708EE7C379DFF8B0
:103920004CB0C3F38012C3F340131B0143EA4213AC
:10393000227822F03002134323704388C31800F129
:1039400009060193019BB34216D8FFF7A5FC06A90F
:10395000284600F0FFF9CEE62C0000207414002069
:103960004015002041150020D131000838150020F5
:103970003C150020ACA3020873780B2B01BFF37831
:1039800002933378F6181CBF012302937378042B3B
:10399000B3D1019B9BF800109B1B9AB2B74B4FF021
:1039A000000A5FFA8AF7B94212D9196811EB471178
:1039B000A3D0D1F81090039231462846C847082872
:1039C000039AAE4B814621D982421FD300220DE0DB
:1039D000AB48791A00EB4111EBE7B1780B4454FA8C
:1039E00083F301321979FF2987D11F710299D3B26C
:1039F0009942F2D83B463146A2484A46FFF7D6FBE9
:103A00009BF80030BB424E449CD276E79BF80010F6
:103A10000AF1010A5FFA8AF08142C2D26DE7FFF72C
:103A20003CFC94E7BDF81A301A0AD8B2531E0E2B8C
:103A30003FF603AF01A151F823F000BF793A000827
:103A40009B3A0008B53A00083B3800083B380008AC
:103A5000C93A00089B3A00083B3800083B38000888
:103A60003B3800083B3800083B3800083B3800086A
:103A70003B380008913A0008FEF726FC0246002871
:103A80003FF4AAAE122306A9284600F075F9B5E660
:103A9000FFF7FCFB024640B9CFE6022A07D1FEF74A
:103AA0001FFC024600283FF497AE5388EBE7FFF770
:103AB000F1FBEFE7BDF81C10FEF716FC02460028EC
:103AC0003FF4BBAE0378DEE7FFF7E2FBF6E7BDF8B5
:103AD0001A30012B7FF4B1AE237843F00803237032
:103AE00035E7BDF81A30012B7FF4A7AE23786FF3CA
:103AF000C303F4E72378C3F340129B0803F00203E7
:103B00001343ADF8123002230DF1120206A9284624
:103B100000F032F9EFE59DF81C300F2B3FF68DAE2B
:103B2000594A234412781B79934222D2534A11688E
:103B300011EB43113FF481AE06AA2846FFF78CFB38
:103B400000287FF4D8AD9DF8183013F060047FF49E
:103B500074AE9DF819300A3B012B3FF66EAE00F0B3
:103B60003DF99DF819300A2B7FF4F1AE8DF8124023
:103B7000A2E67FF462AE4249DEE79DF81C1011F028
:103B8000780F7FF429AE01F07F0204EB42023E4839
:103B900002EBD1120078127D824213D237480668B8
:103BA00006EB4216B3B99DF8193003F0FD02012A65
:103BB00014D0002B7FF410AE2846FFF785FDADF83A
:103BC0001200A0E740F08F802D4E002BEBD006AA0C
:103BD000314640E6002E3FF430AEF8E7BDF81A203B
:103BE00022B9012B284612D1FFF750FD002E3FF4D9
:103BF00082AD314606AA2846FFF72EFB002000F0D2
:103C0000EDF894F82530DE073FF575AD9FE6FFF738
:103C10001FFDEBE79DF8181001F07F0408EB44034B
:103C200003EBD11393F824006FF3000083F8240012
:103C300093F824006FF3820083F824003CB9079BBB
:103C40009DF819209DF8140000F0DCF853E51A7D6A
:103C50000D4B1B789A420DD2084B1B6813EB421395
:103C60003FF480AD9C699DF81920079B9DF81400D6
:103C7000A04740E57FF476AD014BF3E73C1500200B
:103C8000ACA30208551500203815002098F8003024
:103C9000D8077FF530AD98F80000C0F3C000FFF7FB
:103CA000FDFA28E598F80030D9077FF524ADFFF735
:103CB000F6FA20E5069B002B3FF41DAD07989847C8
:103CC00019E598F80330DA077FF515AD0698FFF788
:103CD000DCFA10E54FF0E023D3F8F03DDB077FF589
:103CE0000AAD00BE07E5002B7FF4A7AD00265AE71A
:103CF000124B9989DA8970B58C1AA4B2054693F9EA
:103D00000000402C28BF402400280EDA914212D037
:103D100099680B48224603F021FB8021084A23467C
:103D20002846BDE87040FFF767BC91424FF00001A4
:103D3000F4D10A46F3E780210022F0E7B81500200D
:103D400078150020C94300231A4601F08001FFF7CF
:103D500053BC000030B4074C05460B460868496860
:103D6000224603C20022C4E902222846197830BC48
:103D7000FFF7E8BFB8150020F8B5134E0C4605460E
:103D800008684968B260374603C70021F181E188BD
:103D90008B4228BF0B46B38189B14BB142B94FF07A
:103DA000E023D3F8F03DDB0700D500BE002005E09E
:103DB0002846FFF79DFF0028F1D00120F8BD2178AB
:103DC0002846FFF7BFFFF6E7B81500200248142287
:103DD000002103F08FBA00BFB8150020014B186115
:103DE000704700BFB815002010B50246044C0068AB
:103DF0005168234603C30023C4E9023310BD00BF4A
:103E0000B815002070B5284C1E462378C909B1EBBF
:103E1000D31F054613D03EB14FF0E023D3F8F03D59
:103E2000DB073FD4002070BD214600F093FF2369DB
:103E30001BB122460321284698470120F3E794F955
:103E40000030A068002B05DB0028EBD01749324674
:103E500003F084FAA268E38932443344A260E28822
:103E60009BB29A42E38101D03F2E17D8236933B920
:103E700021782846FFF766FF0028DED1CCE7022133
:103E8000094A2846984701460028F1D1284601F002
:103E90001FF88021284601F01BF8CEE72846FFF7DF
:103EA00027FFE9E700BEBDE7B81500207815002020
:103EB0000A4492B291424FEA400001D8824201DBAB
:103EC000121A92B21046704738B50546D41A084601
:103ED000A988A4B29A423CBF04EB4104A4B2B4B195
:103EE000A14205D2914294BF521A521893B26B81EB
:103EF000994209D9EA882968C2F30E0202FB03112C
:103F000003F02CFA012038BD5B1A9BB2F0E7204683
:103F1000F9E703894289818892B29BB2934236BF06
:103F2000C2EB41029B1A9B189BB299428CBF0020A6
:103F3000012070470289438910B59BB2044692B2B2
:103F4000FFF7C2FF61890346024689B2A088FFF7E6
:103F5000AFFF6081184610BD70B5058904460E4656
:103F6000ADB2FFF7D6FF10B1E079C00913D0A38836
:103F70002846834210D9E2882368C2F30E023146F4
:103F800002FB003003F0EAF9A08801222946FFF77E
:103F90008FFF2081012070BDC01A80B2E9E70023A5
:103FA00043810381012070470A46018908B589B21F
:103FB00003468088FFF77CFF188108BD0A464189C7
:103FC00008B589B203468088FFF772FF588108BDA3
:103FD00070B5048943898588A4B29BB29C4236BFE0
:103FE000C3EB4502E21A121992B2954206D2A542DB
:103FF00094BF631B2B199BB243812A4632B9C1E996
:1040000000220020886070BD641BA4B2A542FBD9C9
:104010009D4209D90068A34200EB03064E6006D218
:1040200000230A804B80ECE75B1B9BB2F0E7521B3E
:10403000EC1A13440C804B80E4E70389428970B585
:104040009BB292B28588934236BFC2EB45049C1A5C
:10405000E418A4B2A54207D80023C1E90033002028
:10406000886070BD5B1B9BB29D42FBD995420AD90B
:1040700000689A4200EB03064E6007D9D21A00236B
:104080000A804B80EBE7521B92B2EFE7ED1A1B1B45
:104090000D804B80E4E77047012070477047704700
:1040A0002DE9F0410E4615461C4608BB124F7978A3
:1040B000FFF794FAE0B19EB110483F2C80F84060C1
:1040C00016D822462946413003F048F90134A4B2FB
:1040D00079780B4A23460020BDE8F041FFF78CBAFF
:1040E000402C05D822462946054803F037F9EFE76A
:1040F0000020BDE8F08100BF8C160020CC15002008
:104100000C16002001207047024B0022C3E9002258
:104110009A6070478C1600200020FFF7F5BF000062
:10412000F7B50D4607466B79032B114628D12A793E
:10413000C2EBC2061236B6B28E421AD8224C617851
:10414000B9B995F800C005EB0C0191F801E0BEF19A
:10415000210F0ED1A16015F80CC004F1010ECDF8AD
:1041600004E004F1020ECDF800E06144FFF708FA24
:1041700050B94FF0E023D3F8F03DDA0700D500BE88
:104180000026304603B0F0BDAB79A178012B04BF07
:10419000EB79E3700123A371AB782370A368B3F8C4
:1041A0000730A3800029ECD0084A40233846FFF7A7
:1041B00023FA0028E5D14FF0E023D3F8F03DDB07E8
:1041C000DFD500BEDDE700BF8C1600204C160020B6
:1041D000F7B5164612780B4602F01F010129074673
:1041E00059D1524CB1882578C9B28D4253D112F0C1
:1041F00060021ED1012B75D17178738806294AD1CE
:104200001B0A212B09D1A268002A44D01378314619
:1042100003B0BDE8F040FFF7AFBD222B3BD1104605
:10422000FEF756F8A388024631463846FFF7A4FD4C
:1042300058E0202A2FD17278013A0A2A2BD8DFE8D9
:1042400002F00662662A2A2A2A2A2F536A00012BC4
:1042500048D1F5887188364C402D4FEA1122284606
:1042600028BF402011F0FF0118D0012D16D90138C8
:1042700004F8011B80B21D46009023460020FCF785
:1042800003FC2B189BB283B94FF0E023D3F8F03D29
:10429000DB0700D500BE002003B0F0BD0025EBE732
:1042A000012B04D1F388402BF5D8214ABCE7032B1E
:1042B00018D1F48871881E4B402C4FEA11222046F9
:1042C00028BF402011F0FF0108D0012C06D91C782E
:1042D0008C4202BF00F1FF3080B201330090002019
:1042E000FCF7D4FB0120D7E7012BFBD1718800201C
:1042F000090AE171FFF7D0FE0028CCD031463846DC
:10430000FFF728FDEEE7012BECD10A4A8CE7012BE1
:10431000E8D1094A88E7012BF0D0032BE2D171885C
:104320000020C9B2A171FFF7B6FEDBE78C160020B2
:10433000CC150020931600209216002037B51D4D95
:1043400004461046AA788A420BD06A788A4208D07E
:104350004FF0E023D3F8F03DDB0700D500BE00208E
:1043600009E06A788A429BB20DD130B912491A46E7
:10437000FFF794FE012003B030BD0F4A0121002059
:10438000FFF78DFEF6E770B9009302220B4B014652
:10439000FCF77CFB094AA97840232046FFF72CF95B
:1043A0000028E7D1D4E7054A02210020FFF777FE75
:1043B000F0E700BF8C1600200C1600204C160020E1
:1043C0001E4AF0B5C40900F07F050023164604F12B
:1043D000020C84F0010E12F80C70D8B237B1577885
:1043E0008F421DD11778AF421AD1F0BD012904D1F7
:1043F00006EB83077744BF7897B91778FF2F01D072
:10440000AF420DD15778FF2F08D106F8235006EBA5
:1044100083030122597023449A70E6E78F42F4D057
:104420000133082B02F10402D5D14FF0E023D3F879
:10443000F03DDB0700D500BE0020D6E79B1600202C
:1044400000F18040530800F5C040F0B50D46064627
:104450001C46013C06D2D20744BF11F8132020F8B5
:104460001320F0BD35F8027B26F8027BF1E701F15D
:104470008041530801F5C041F0B506460D461C4683
:10448000013C06D2D20744BF31F8132000F81320B4
:10449000F0BD35F8027B26F8027BF1E73E280E4995
:1044A0008BBF1F300130C0F34713C0F347030888A8
:1044B0008CBF2022022203FB02039BB2B3F5806F64
:1044C0000B8008D94FF0E023D3F8F03DDB0700D58F
:1044D00000BE4FF6FF707047981600201F4A38B58F
:1044E0000023A2F84C301E4AFF211D460133082B41
:1044F000117051709570D57002F10402F6D100214F
:10450000184B402408461C80FFF75AFF8020FFF715
:1045100057FF154B20469D739D779C819C83FFF729
:10452000BDFF85B22046FFF7B9FF10490B4A8D80C9
:1045300080B20880138823F4786323F00F035B04B0
:104540005B0C83F4085383F020034FF48050C88041
:1045500013808023A2F84C3038BD00BF005C0040BF
:104560009B16002098160020BC160020006000401A
:1045700030B5BFF34F8FBFF36F8F0A490A4C00224B
:10458000012011F9013B002B06DB5D0903F01F033D
:1045900000FA03F344F825300132D2B2032AF0D1F5
:1045A00030BD00BFCCA3020800E100E030B50C48EC
:1045B0000C4D0022012410F9013B002B0BDB5909A3
:1045C000203103F01F0304FA03F345F82130BFF351
:1045D0004F8FBFF36F8F0132D2B2032AEBD130BDC0
:1045E000CCA3020800E100E02DE9F04F43890489E3
:1045F0008289D0F804B0E41AA4B2944228BF1446C9
:10460000504A32F821801FFA88F808F4C0628BB053
:1046100048F40047B2F5806F47F08007019208BF69
:10462000C7F3801A4FEA410218BF4FF0000A8946CB
:1046300004920AEB4102444931F822500646ADB2D9
:10464000BBF1000F74D0002C49D007A95846FFF7E2
:10465000BFFCBDF81C10BDF81E20A14228BF21469A
:10466000631A9BB2934228BF1346CA18984693B266
:1046700021F00100029301F0010382B20899039333
:1046800020B128460592FFF7DBFE059A039B1544EF
:10469000A8B2099DC3B18A5CADF81A20B8F1000F29
:1046A00009D015F8011B08F1FF3342EA0122ADF8E9
:1046B0001A201FFA83F802220DF11A010390FFF766
:1046C000BFFE0398023080B2B8F1000F03D042461B
:1046D0002946FFF7B5FE02995846FFF76FFC73892C
:1046E00023447381049B53449B0003F1804303F5EF
:1046F000C043C4F309045A8802F47C4222435A801E
:10470000019BB3F5806F04BF0123F3730020FFF713
:104710004DFF87F030070B4B27F4E04727F04007A9
:10472000002023F829700BB0BDE8F04FFFF720BF41
:10473000002CD4D00168224619442846FFF780FE99
:10474000CDE700BF005C004000600040344A38B54F
:104750000B4601EB400102EB0111012B8C7B08D1D0
:1047600003EB4000214602EB0010FFF73DFF012064
:1047700038BD2C4902EB401031F824500289808961
:10478000ADB225F48041824221F0700105F4C0658C
:1047900028BF024641F40041B5F5806F41F0800129
:1047A0004FEAC40024D13E2A89BF1F3201320123BF
:1047B000C2F3471298BFC2F34702D21ADB0343EA9F
:1047C00082239BB200F18040002B00F5C04008BF5F
:1047D0004FF400434380C380002081F44055FFF72D
:1047E000E5FE104B002023F82450FFF7C1FEBEE782
:1047F0003E2A89BF1F3201320123C2F3471298BFFC
:10480000C2F34702D21ADB0343EA82239BB2002B96
:1048100000F1804008BF4FF4004300F5C040DAE7E4
:10482000BC160020005C0040054AB2F858306FEA20
:1048300043436FEA53439BB2A2F85830704700BF1E
:10484000005C00401FB5044600230193019BC72B69
:1048500034D9204A0323A2F8403000230293029B5C
:10486000C72B2FD9B2F8403023F002031B041B0CD6
:10487000A2F8403000230393039BC72B26D9154B86
:104880000022A3F84020A3F85020A3F844201A8067
:104890009A801A819A811A829A821A839A83B3F82B
:1048A000402092B242F45D42A3F84020FFF716FE8A
:1048B0002046FFF7B9FF012004B010BD00BF019BE7
:1048C0000133C2E700BF029B0133C7E700BF039B70
:1048D0000133D0E7005C0040074AB2F8403029B10C
:1048E0009BB243F40073A2F84030704723F4007386
:1048F0001B041B0CF7E700BF005C00402DE9F04FE4
:104900008E4BB3F8442097058FB01FFA82FB10D569
:104910004FF6FF52A3F84420B3F848304FF44072EA
:10492000C3F30A0301210BA8ADF82C200C93FEF76A
:104930001FFD1BF4806F814A13D04FF6FF33A2F89E
:104940004430FFF7CBFD4FF48073ADF82C300121DC
:1049500000230BA88DF83030FEF70AFD0FB0BDE83C
:10496000F08F1BF4805F1BD0B2F8403023F00403BB
:104970001B041B0CA2F84030B2F8403023F00803AF
:104980001B041B0CA2F840304EF6FF73A2F8443013
:1049900001214FF4A0630BA8ADF82C30FEF7E8FC22
:1049A0001BF4006F1AD0654BB3F8402092B242F06E
:1049B0000802A3F84020B3F8402092B242F004026B
:1049C000A3F840204FF2FF72A3F8442001214FF4D6
:1049D00080630BA8ADF82C30FEF7CAFC1BF4807F77
:1049E00016D057490A78012A0BD15448B0F8403004
:1049F00023F010031B041B0CA0F84030013A0A708E
:104A000001E0002AFAD14D4B4FF6FF62A3F8442093
:104A1000DFF830A1494BB3F844301A040FD41BF42B
:104A2000804F9BD04FF0E023D3F8F03DDB0700D55B
:104A300000BE424B4BF6FF72A3F844208EE73F4B7B
:104A4000B3F8447007F00F07BC0004F1804404F58C
:104A5000B84423889AB21E04029227D5150575D54D
:104A6000FB0003F1804303F5C043DD889988C5F35B
:104A7000090589B21DB12A4609A8FFF7F8FC238869
:104A800023F070031B051B0D43F08003082D2380CA
:104A900047D1DDE909014FF4C063ADF82C300EAB0E
:104AA00003E9030001210BA8FEF762FC029B190633
:104AB000B0D52388234823F4E14323F070031B047B
:104AC0001B0C43F400432380218801F00F028BB2BA
:104AD00001F4C061B1F5806F4FEA421114D144185E
:104AE000E57F002D96D083F04003C3F3801303EBE2
:104AF00047039B0003F1804303F5C0430025E5779E
:104B00005C8804F47C445C804318598B1B8B8B427B
:104B100000F00D8100EB421039461030FFF764FDC4
:104B200078E74FF0E023D3F8F03DD80700D500BE7A
:104B3000054B4FF48052DA80B8E700BF005C0040BC
:104B40009A160020BC16002000600040238823F045
:104B500070031B051B0D43F08003238023889AB24A
:104B600003F00F0903F4C063B3F5806F049304BF2F
:104B7000134683F48043039208BFC3F38033744A1F
:104B800018BF012303EB470302EB8301B1F8028056
:104B900032F823500AEB4913C8F309085968009109
:104BA000ADB24FEA4912002900F08480B8F1000F3D
:104BB00032D00BA90098FFF740FABDF82C30BDF8B1
:104BC0002E20434528BF4346A8EB0306B6B29642C3
:104BD00028BF16469A1992B2069223F0010291B2AA
:104BE00001910C99059103F0010332B1019A0598E6
:104BF00007932946FFF73BFC079B019A1544ADB28A
:104C0000002B42D10D981EB132462946FFF72FFCEA
:104C100006990098FFF7C8F90AEB49134FEA4915BE
:104C200059899A89414489B29045598102D31B8997
:104C300099424BD33E2A8BBF1F32013201230023FE
:104C40008CBFC2F34712C2F34702D21ADB0343EA16
:104C50008223FA009BB202F18042002B02F5C0428F
:104C600008BF4FF400435544D38000264FF4E0635F
:104C70000D910BA80121ADF82C308DF830908DF8F6
:104C80003160FEF775FBAE6010E72946022209A8E5
:104C9000FFF7EDFB059A0199BDF824305354023516
:104CA0000D98ADB2002EB3D01B0A013E00F8013BB7
:104CB000B6B2A8E7B8F1000FAED05AF802005B898F
:104CC000424629461844FFF7D2FBA5E70498B0F501
:104CD000806F1ED05B1A9BB2934228BF13463E2BB7
:104CE0008BBF1F330133012200228CBFC3F3471354
:104CF000C3F347039B1AD20342EA8323FA009BB211
:104D000002F18042002B02F5C04208BF4FF400437D
:104D1000D380039B23F4804323F0700343F40043C8
:104D200043F0800383F440539BB22380BEE64FF4EC
:104D3000E061ADF82C1062F07F020D930121002399
:104D40000BA88DF830208DF83130FEF711FB61E6AD
:104D5000006000400B785B0609D14B78052B06D12B
:104D60004B88054A63F07F03DBB2A2F84C30034B5B
:104D70004FF48052DA807047005C004000600040D1
:104D80002DE9F8430C468E78B1F80480C978304696
:104D900001F00301FFF714FB0728054609D94FF07E
:104DA000E023D3F8F03DDB0700D500BE0020BDE8CE
:104DB000F883254B33F8203023F4786323F00F0376
:104DC00046F400475B045B0C47F080071F43E37821
:104DD00003F00303022B06F07F0903D0032BDED17F
:104DE00047F4C067C8F30A084046FFF757FBF609C7
:104DF00086F00103154A03EB450380B222F8230035
:104E0000134B06EB490903EB0913012EA3F80C80A1
:104E10009D734FF002040CBF04230C2304FA03F427
:104E200084EA07044FF000000CBF24F4E04424F0AF
:104E30007004FFF7BBFB044BA4B2002023F825400D
:104E4000FFF796FB0120B2E7005C004000600040E5
:104E5000BC16002038B504460C4DFFF7A7FB0C4BE1
:104E600001220021FF2025F822100132082A1871A2
:104E700058719971D97103F10403F4D12046FFF7F9
:104E800077FB044BC0221A8038BD00BF005C004095
:104E90009B1600209816002001F07F0070B444009B
:104EA000074D04EBD114260105EB0414AA5100228E
:104EB000626023816281C90970BCFFF747BC00BFF3
:104EC000BC16002000231A468021FFF7E5BF000032
:104ED00001F07F035B00CA0903EBD111134B03EB15
:104EE000011370B59E7B124D35F826309BB2012A16
:104EF0004BF68F7143F4004348F6BF7243F08003D2
:104F000018BF0A4603EA02034FF0010414BF0C2243
:104F1000042294405C400020A4B2FFF747FB25F830
:104F200026400020BDE87040FFF722BBBC160020E1
:104F3000005C004038B501F07F035B00C80903EB5B
:104F4000D111184B03EB011301289D7B164B33F84D
:104F500025304BF68F719BB248F6BF720EBF4024CE
:104F60000A464FF4804443F4004343F08003144363
:104F70001C4004F4C063B3F5806F06D0012814BF51
:104F80000C220422022393405C400020FFF70EFB1A
:104F9000054BA4B223F825400020BDE83840FFF7B8
:104FA000E7BA00BFBC160020005C0040034AD2F8FC
:104FB000883043F47003C2F88830704700ED00E099
:104FC000F7B50E461446054600F07CFB3444241A1F
:104FD00000F078FB224B1B68C3F3CB3363430746D7
:104FE00001932A68906810F080002DD0731CF9D0CE
:104FF00000F068FBC01BA04228D32B685A6822F03F
:10500000E0025A606A68B2F5827F0AD1AA68B2F5F6
:10501000004F02D0B2F5806F03D11A6822F040022F
:105020001A60AA6AB2F5005F07D11A6822F400522A
:105030001A601A6842F400521A60012385F85D3044
:10504000002385F85C30032003B0F0BD019A019B7A
:10505000002A03F1FF33019308BF1446C1E700BFE4
:10506000300000202DE9F7431C46002317468DF839
:10507000033005460E4600F025FB3C44241A00F0A0
:1050800021FB294BD5F800901B68232253431B0DAD
:105090006343804601932A689068304038D0B6F563
:1050A000C06F01BF99F80C30DBB28DF803309DF86A
:1050B00003307B1CF0D000F005FBA0EB0800A04201
:1050C00029D32B685A6822F0E0025A606A68B2F568
:1050D000827F0AD1AA68B2F5004F02D0B2F5806F84
:1050E00003D11A6822F040021A60AA6AB2F5005F82
:1050F00007D11A6822F400521A601A6842F400526A
:105100001A60012385F85D30002385F85C300320A8
:1051100003B0BDE8F083019A019B002A03F1FF333D
:10512000019308BF1446B6E73000002070B513465F
:105130000D4616460A464FF4C0510446FFF792FF4B
:1051400028B1236E43F020032366032070BD32464E
:1051500029462046FFF734FF0028F2D133462A467D
:105160004FF4C0612046FFF77DFF0028EED0E8E74E
:1051700070B50446002867D0436A002B5DD14268B1
:10518000B2F5827F00D0C3610023A36294F85D3042
:1051900003F0FF0223B984F85C202046FBF7A4FE4D
:1051A0002268E068022384F85D301368B0F5E06F90
:1051B00023F0400313604FF0000342D91D46B0F5C1
:1051C000706F18BFA362A6686368A16906F40446FD
:1051D00003F482733343266906F00206334366699B
:1051E00006F00106334301F400763343E66906F026
:1051F00038063343266A06F080063343A66A06F46F
:10520000005633431360666B636A06F0080603F0CA
:10521000100300F470603343090C034301F00401F0
:105220000B432B435360D36923F40063D361002005
:105230000123206684F85D3070BD0023C0E904338B
:10524000A2E74FF48055BCE70120F5E72DE9F743CD
:1052500004461F460D46904600F034FA94F85D303F
:10526000012B8146D8B240F0B580002D76D0B8F140
:10527000000F73D094F85C30012B00F0AB80032357
:1052800084F85D3000232366C4E91333A4F83E801C
:105290002364A4F84430A4F84630A368266884F850
:1052A0005C00B3F5004FA563A4F83C8007D13368D8
:1052B00023F040033360336843F480433360336842
:1052C000E2685B065EBF336843F040033360B2F5CB
:1052D000E06F636845D913B1B8F1010F07D135F814
:1052E000023BF360A563E38F013B9BB2E387E38F4F
:1052F0009BB2D3B94A4639462046FFF717FF00282C
:1053000065D1A36833B901932368DA6801929B6879
:105310000193019B012384F85D30206E0023C01AA5
:1053200084F85C3018BF012018E0226893689D075C
:1053300005D5A36B33F8021BD160A363D3E700F05C
:10534000C1F9A0EB0900B842D1D3781CCFD001231A
:1053500084F85D30002384F85C30032003B0BDE89E
:10536000F08313B1B8F1010F13D1E38F9BB2012B7E
:1053700006D935F8023BF360A563E38F023B06E0F4
:105380002B783373A36B0133A363E38F013B9BB291
:10539000E387E38F9BB2002BACD022689368990718
:1053A0000CD5E18FA36B89B2012904D933F8021B14
:1053B000D160A363E1E71B781373E3E700F082F9A0
:1053C000A0EB0900B842E4D37B1CE2D0BFE7202366
:1053D000236696E70220C1E72DE9F84304460D460F
:1053E00091461E46089F00F06DF994F85D206368B1
:1053F000012A8046D1B20AD0B3F5827F40F01D81E8
:10540000A268002A40F01981042940F01681002D7D
:1054100055D0B9F1000F52D0002E50D094F85C2036
:10542000012A00F00A81012284F85C2094F85D20B2
:10543000E0682168C4F84090042A1CBF052284F863
:105440005D2000222266B0F5E06FA4F84660E68792
:10545000C4E91322A4F844604A68A563A68701D86A
:10546000012E2ED022F480524A600A6852065EBF96
:105470000A6842F040020A60B0F5E06F5BD90BB1F8
:10548000012E07D135F8023BCB60E38FA563013BCA
:105490009BB2E3870125E38F9BB2ABB9B4F84630EA
:1054A0009BB28BB9424639462046FFF73FFE0028A3
:1054B00000F0B98020232366002384F85C300120AB
:1054C00037E042F48052CFE721688B689E070DD504
:1054D000E38F9BB253B145B1A36B33F8022BCA6083
:1054E000A363E38F013B9BB2E38700258A6812F038
:1054F00001020FD0B4F846309BB25BB1236CC9688F
:1055000023F8021B2364B4F84630013B9BB2A4F895
:105510004630154600F0D6F8A0EB0800B842BAD3E2
:10552000781CB8D0012384F85D30002384F85C3007
:105530000320BDE8F8830BB1012E0BD1E38F9BB2A2
:10554000012B09D935F8023BCB60E38FA563023B01
:105550009BB2E387012548E02B780B73A36B0133E3
:10556000A363E38F013BF3E722689368990711D5A2
:10557000E38F9BB273B165B1E18FA36B89B201294F
:105580003DD933F8021BD160A363E38F023B9BB28A
:10559000E38700252268916811F001011DD0B4F85D
:1055A00046309BB2CBB1B4F84600236C80B20128E0
:1055B0002DD9D06823F8020B2364B4F84630023B9F
:1055C0009BB2A4F84630B4F846309BB2012B9EBF84
:1055D000536843F4805353600D4600F073F8A0EB1A
:1055E0000800B84201D37B1C9CD1E38F9BB2002BF7
:1055F000BAD1B4F846309BB2002BB5D152E71B7834
:105600001373A36B0133A363E38F013BBFE7127BEB
:105610001A70236C01332364B4F84630013B9BB20B
:10562000A4F84630D8E7012384F85D3084F85C00A4
:10563000206E003818BF01207BE7022079E70000C8
:1056400038B50F4B1A6805460AB9012038BD4FF42A
:105650007A73B3FBF2F30B4A1068B0FBF3F001F07E
:1056600019F804460028F0D10F2DEED8024629463D
:105670004FF0FF3000F0CEFF034B20461D60E5E702
:1056800034000020300000203800002010B5032036
:1056900000F0AEFF0F20FFF7D3FF044618B9FBF769
:1056A00009FC204610BD0124FBE70000034A044921
:1056B000136809680B441360704700BFBC170020D3
:1056C00034000020014B1868704700BFBC17002051
:1056D0002DE9F341044618B9012002B0BDE8F0817C
:1056E0000368D90714D423689A0758D42368190784
:1056F00000F1A18023685A0700F1C88023689A0648
:1057000000F12F81E369002B40F05C810020E4E789
:105710009F4DAB68EA6803F00C030C2B0AD102F032
:105720000303032B08D12B689B03DCD56368002B94
:10573000D9D1D1E7082BF5E76368B3F5803F10D1E5
:105740002B6843F480332B60FFF7BCFF06462B68C1
:105750009F03C8D4FFF7B6FF801B6428F7D9032046
:10576000BBE7B3F5A02F04D12B6843F480232B6053
:10577000E6E72A6822F480322A602A6822F480222E
:105780002A60002BE0D1FFF79DFF06462B689903A6
:10579000A9D5FFF797FF801B6428F7D9DFE77C4D79
:1057A000AB68EA6803F00C030C2B17D102F003037B
:1057B000022B15D12B685A0502D5E368002B8BD03C
:1057C0006B68226923F0FE4343EA02636B60714B0E
:1057D0001868FFF735FF002888D07DE7042BE8E73D
:1057E000E368BBB12B6843F480732B60FFF76AFF5B
:1057F00006462B685B0507D56B68226923F0FE43DC
:1058000043EA02636B6071E7FFF75CFF801B0228CD
:10581000EFD9A4E72B6823F480732B60FFF752FFC6
:1058200006462B685F057FF561AFFFF74BFF801BD6
:105830000228F6D993E76369554D9BB1D5F89430AA
:1058400043F00103C5F89430FFF73CFF0646D5F856
:1058500094309B073FF54EAFFFF734FF801B0228C3
:10586000F5D97CE7D5F8943023F00103C5F89430DE
:10587000FFF728FF0646D5F894309F077FF53AAF2B
:10588000FFF720FF801B0228F5D968E7404DAB6D7C
:10589000D80027D4AB6D43F08053AB65AB6D03F0FC
:1058A00080530193019B01273B4E3368D9051BD5DB
:1058B000A368012B29D1D5F8903043F00103C5F836
:1058C0009030FFF7FFFE41F288380646D5F8903059
:1058D0009B0740D5002F3FF411AFAB6D23F08053F1
:1058E000AB650BE70027DFE7336843F48073336071
:1058F000FFF7E8FE80463368DA05D9D4FFF7E2FE09
:10590000A0EB08000228F6D929E7052B06D1D5F827
:10591000903043F00403C5F89030CCE7D5F89020E0
:1059200022F00102C5F89020D5F8902022F0040260
:10593000C5F89020002BC4D1FFF7C4FE41F288388F
:105940000646D5F890309907C4D5FFF7BBFE801BFB
:105950004045F6D903E7FFF7B5FE801B4045B5D9B2
:10596000FDE6A3690A4DCBB1D5F8983043F00103A9
:10597000C5F89830FFF7A6FE0646D5F898309B0785
:105980003FF5C0AEFFF79EFE801B0228F5D9E6E684
:10599000001002403800002000700040D5F8983018
:1059A00023F00103C5F89830FFF78CFE0646D5F8C2
:1059B00098309F077FF5A6AEFFF784FE801B022874
:1059C000F5D9CCE6454DAA6802F00C020C2A51D05C
:1059D000022B2B6823F080732B603AD1FFF772FE05
:1059E00006462B6899012ED4EA683D4B1340226A83
:1059F0001343A26A43EA0223E26A43EAC263626A89
:105A0000013A43EA0213226B5208013A43EA425335
:105A1000626B5208013A43EA4263EB602B6843F041
:105A200080732B60EB6843F08073EB60FFF74AFEF6
:105A300004462B689A013FF569AEFFF743FE001B51
:105A40000228F6D98BE6FFF73DFE801B0228C8D955
:105A500085E6FFF737FE04462B689B0104D4EA680D
:105A6000204B1340EB6051E6FFF72CFE001B022891
:105A7000F2D974E6012B3FF42FAEEB68226A03F0F3
:105A8000030191427FF428AE616A03F0F00201390C
:105A9000B2EB011F7FF420AEA16A03F4FE42B2EB29
:105AA000012F7FF419AEE16A03F07842B2EBC16FC7
:105AB0007FF412AE226B520803F4C001013AB1EB3D
:105AC000425F7FF409AE626B5208013A03F0C06393
:105AD000B3EB426F14BF01200020FEE5001002402E
